{
  "_format": "hh-sol-artifact-1",
  "contractName": "WavePortal",
  "sourceName": "contracts/WavePortal.sol",
  "abi": [
    {
      "inputs": [],
      "stateMutability": "payable",
      "type": "constructor"
    },
    {
      "anonymous": false,
      "inputs": [
        {
          "indexed": true,
          "internalType": "address",
          "name": "from",
          "type": "address"
        },
        {
          "indexed": false,
          "internalType": "uint256",
          "name": "timestamp",
          "type": "uint256"
        },
        {
          "indexed": false,
          "internalType": "string",
          "name": "text",
          "type": "string"
        },
        {
          "indexed": false,
          "internalType": "string",
          "name": "author",
          "type": "string"
        }
      ],
      "name": "NewWave",
      "type": "event"
    },
    {
      "inputs": [
        {
          "internalType": "string",
          "name": "_text",
          "type": "string"
        },
        {
          "internalType": "string",
          "name": "_author",
          "type": "string"
        }
      ],
      "name": "addWaveHandler",
      "outputs": [],
      "stateMutability": "nonpayable",
      "type": "function"
    },
    {
      "inputs": [],
      "name": "getAllWaves",
      "outputs": [
        {
          "components": [
            {
              "internalType": "address",
              "name": "waver",
              "type": "address"
            },
            {
              "internalType": "string",
              "name": "text",
              "type": "string"
            },
            {
              "internalType": "string",
              "name": "author",
              "type": "string"
            },
            {
              "internalType": "uint256",
              "name": "timestamp",
              "type": "uint256"
            }
          ],
          "internalType": "struct WavePortal.Wave[]",
          "name": "",
          "type": "tuple[]"
        }
      ],
      "stateMutability": "view",
      "type": "function"
    },
    {
      "inputs": [],
      "name": "getCountWaves",
      "outputs": [
        {
          "internalType": "uint256",
          "name": "",
          "type": "uint256"
        }
      ],
      "stateMutability": "view",
      "type": "function"
    },
    {
      "inputs": [
        {
          "internalType": "address",
          "name": "",
          "type": "address"
        }
      ],
      "name": "lastWavedAt",
      "outputs": [
        {
          "internalType": "uint256",
          "name": "",
          "type": "uint256"
        }
      ],
      "stateMutability": "view",
      "type": "function"
    }
  ],
  "bytecode": "0x60806040526200004f6040518060400160405280600581526020017f48454c4c4f0000000000000000000000000000000000000000000000000000008152506200007760201b620006801760201c565b606444426200005f9190620001c4565b6200006b919062000261565b60008190555062000308565b62000117816040516024016200008e919062000184565b6040516020818303038152906040527f41304fac000000000000000000000000000000000000000000000000000000007bffffffffffffffffffffffffffffffffffffffffffffffffffffffff19166020820180517bffffffffffffffffffffffffffffffffffffffffffffffffffffffff83818316178352505050506200011a60201b60201c565b50565b60008151905060006a636f6e736f6c652e6c6f679050602083016000808483855afa5050505050565b60006200015082620001a8565b6200015c8185620001b3565b93506200016e8185602086016200022b565b6200017981620002f7565b840191505092915050565b60006020820190508181036000830152620001a0818462000143565b905092915050565b600081519050919050565b600082825260208201905092915050565b6000620001d18262000221565b9150620001de8362000221565b9250827fffffffffffffffffffffffffffffffffffffffffffffffffffffffffffffffff0382111562000216576200021562000299565b5b828201905092915050565b6000819050919050565b60005b838110156200024b5780820151818401526020810190506200022e565b838111156200025b576000848401525b50505050565b60006200026e8262000221565b91506200027b8362000221565b9250826200028e576200028d620002c8565b5b828206905092915050565b7f4e487b7100000000000000000000000000000000000000000000000000000000600052601160045260246000fd5b7f4e487b7100000000000000000000000000000000000000000000000000000000600052601260045260246000fd5b6000601f19601f8301169050919050565b6110b780620003186000396000f3fe608060405234801561001057600080fd5b506004361061004c5760003560e01c8063244a0bf8146100515780632c1c60111461006f578063a42a46631461008b578063bd43a908146100bb575b600080fd5b6100596100d9565b6040516100669190610d34565b60405180910390f35b61008960048036038101906100849190610927565b6100e3565b005b6100a560048036038101906100a091906108fe565b610485565b6040516100b29190610d34565b60405180910390f35b6100c361049d565b6040516100d09190610c60565b60405180910390f35b6000600154905090565b42601e600360003373ffffffffffffffffffffffffffffffffffffffff1673ffffffffffffffffffffffffffffffffffffffff168152602001908152602001600020546101309190610e66565b10610170576040517f08c379a000000000000000000000000000000000000000000000000000000000815260040161016790610d14565b60405180910390fd5b42600360003373ffffffffffffffffffffffffffffffffffffffff1673ffffffffffffffffffffffffffffffffffffffff16815260200190815260200160002081905550600260405180608001604052803373ffffffffffffffffffffffffffffffffffffffff16815260200184815260200183815260200142815250908060018154018082558091505060019003906000526020600020906004020160009091909190915060008201518160000160006101000a81548173ffffffffffffffffffffffffffffffffffffffff021916908373ffffffffffffffffffffffffffffffffffffffff16021790555060208201518160010190805190602001906102799291906107de565b5060408201518160020190805190602001906102969291906107de565b5060608201518160030155505060018060008282546102b59190610e66565b92505081905550606460005442446102cd9190610e66565b6102d79190610e66565b6102e19190610f6c565b6000819055506103286040518060400160405280601681526020017f52616e646f6d20232067656e6572617465643a20256400000000000000000000815250600054610719565b60326000541161042f576000655af3107a4000905047811115610380576040517f08c379a000000000000000000000000000000000000000000000000000000000815260040161037790610cd4565b60405180910390fd5b60003373ffffffffffffffffffffffffffffffffffffffff16826040516103a690610c4b565b60006040518083038185875af1925050503d80600081146103e3576040519150601f19603f3d011682016040523d82523d6000602084013e6103e8565b606091505b505090508061042c576040517f08c379a000000000000000000000000000000000000000000000000000000000815260040161042390610cf4565b60405180910390fd5b50505b3373ffffffffffffffffffffffffffffffffffffffff167f0646f10b0148fe8db9a43af10b6956b53e1478c47afc7132c17e243449dfd33942848460405161047993929190610d4f565b60405180910390a25050565b60036020528060005260406000206000915090505481565b60606002805480602002602001604051908101604052809291908181526020016000905b8282101561067757838290600052602060002090600402016040518060800160405290816000820160009054906101000a900473ffffffffffffffffffffffffffffffffffffffff1673ffffffffffffffffffffffffffffffffffffffff1673ffffffffffffffffffffffffffffffffffffffff16815260200160018201805461054a90610f3a565b80601f016020809104026020016040519081016040528092919081815260200182805461057690610f3a565b80156105c35780601f10610598576101008083540402835291602001916105c3565b820191906000526020600020905b8154815290600101906020018083116105a657829003601f168201915b505050505081526020016002820180546105dc90610f3a565b80601f016020809104026020016040519081016040528092919081815260200182805461060890610f3a565b80156106555780601f1061062a57610100808354040283529160200191610655565b820191906000526020600020905b81548152906001019060200180831161063857829003601f168201915b50505050508152602001600382015481525050815260200190600101906104c1565b50505050905090565b610716816040516024016106949190610c82565b6040516020818303038152906040527f41304fac000000000000000000000000000000000000000000000000000000007bffffffffffffffffffffffffffffffffffffffffffffffffffffffff19166020820180517bffffffffffffffffffffffffffffffffffffffffffffffffffffffff83818316178352505050506107b5565b50565b6107b1828260405160240161072f929190610ca4565b6040516020818303038152906040527f9710a9d0000000000000000000000000000000000000000000000000000000007bffffffffffffffffffffffffffffffffffffffffffffffffffffffff19166020820180517bffffffffffffffffffffffffffffffffffffffffffffffffffffffff83818316178352505050506107b5565b5050565b60008151905060006a636f6e736f6c652e6c6f679050602083016000808483855afa5050505050565b8280546107ea90610f3a565b90600052602060002090601f01602090048101928261080c5760008555610853565b82601f1061082557805160ff1916838001178555610853565b82800160010185558215610853579182015b82811115610852578251825591602001919060010190610837565b5b5090506108609190610864565b5090565b5b8082111561087d576000816000905550600101610865565b5090565b600061089461088f84610dc5565b610d94565b9050828152602081018484840111156108ac57600080fd5b6108b7848285610ef8565b509392505050565b6000813590506108ce8161106a565b92915050565b600082601f8301126108e557600080fd5b81356108f5848260208601610881565b91505092915050565b60006020828403121561091057600080fd5b600061091e848285016108bf565b91505092915050565b6000806040838503121561093a57600080fd5b600083013567ffffffffffffffff81111561095457600080fd5b610960858286016108d4565b925050602083013567ffffffffffffffff81111561097d57600080fd5b610989858286016108d4565b9150509250929050565b600061099f8383610bc3565b905092915050565b6109b081610ebc565b82525050565b60006109c182610e05565b6109cb8185610e28565b9350836020820285016109dd85610df5565b8060005b85811015610a1957848403895281516109fa8582610993565b9450610a0583610e1b565b925060208a019950506001810190506109e1565b50829750879550505050505092915050565b6000610a3682610e10565b610a408185610e44565b9350610a50818560208601610f07565b610a5981611059565b840191505092915050565b6000610a6f82610e10565b610a798185610e55565b9350610a89818560208601610f07565b610a9281611059565b840191505092915050565b6000610aaa603483610e55565b91507f547279696e6720746f207769746864726177206d6f7265206d6f6e657920746860008301527f616e2074686520636f6e7472616374206861732e0000000000000000000000006020830152604082019050919050565b6000610b10602783610e55565b91507f4661696c656420746f207769746864726177206d6f6e65792066726f6d20636f60008301527f6e74726163742e000000000000000000000000000000000000000000000000006020830152604082019050919050565b6000610b76600083610e39565b9150600082019050919050565b6000610b90600883610e55565b91507f576169742031356d0000000000000000000000000000000000000000000000006000830152602082019050919050565b6000608083016000830151610bdb60008601826109a7565b5060208301518482036020860152610bf38282610a2b565b91505060408301518482036040860152610c0d8282610a2b565b9150506060830151610c226060860182610c2d565b508091505092915050565b610c3681610eee565b82525050565b610c4581610eee565b82525050565b6000610c5682610b69565b9150819050919050565b60006020820190508181036000830152610c7a81846109b6565b905092915050565b60006020820190508181036000830152610c9c8184610a64565b905092915050565b60006040820190508181036000830152610cbe8185610a64565b9050610ccd6020830184610c3c565b9392505050565b60006020820190508181036000830152610ced81610a9d565b9050919050565b60006020820190508181036000830152610d0d81610b03565b9050919050565b60006020820190508181036000830152610d2d81610b83565b9050919050565b6000602082019050610d496000830184610c3c565b92915050565b6000606082019050610d646000830186610c3c565b8181036020830152610d768185610a64565b90508181036040830152610d8a8184610a64565b9050949350505050565b6000604051905081810181811067ffffffffffffffff82111715610dbb57610dba61102a565b5b8060405250919050565b600067ffffffffffffffff821115610de057610ddf61102a565b5b601f19601f8301169050602081019050919050565b6000819050602082019050919050565b600081519050919050565b600081519050919050565b6000602082019050919050565b600082825260208201905092915050565b600081905092915050565b600082825260208201905092915050565b600082825260208201905092915050565b6000610e7182610eee565b9150610e7c83610eee565b9250827fffffffffffffffffffffffffffffffffffffffffffffffffffffffffffffffff03821115610eb157610eb0610f9d565b5b828201905092915050565b6000610ec782610ece565b9050919050565b600073ffffffffffffffffffffffffffffffffffffffff82169050919050565b6000819050919050565b82818337600083830152505050565b60005b83811015610f25578082015181840152602081019050610f0a565b83811115610f34576000848401525b50505050565b60006002820490506001821680610f5257607f821691505b60208210811415610f6657610f65610ffb565b5b50919050565b6000610f7782610eee565b9150610f8283610eee565b925082610f9257610f91610fcc565b5b828206905092915050565b7f4e487b7100000000000000000000000000000000000000000000000000000000600052601160045260246000fd5b7f4e487b7100000000000000000000000000000000000000000000000000000000600052601260045260246000fd5b7f4e487b7100000000000000000000000000000000000000000000000000000000600052602260045260246000fd5b7f4e487b7100000000000000000000000000000000000000000000000000000000600052604160045260246000fd5b6000601f19601f8301169050919050565b61107381610ebc565b811461107e57600080fd5b5056fea2646970667358221220687bf8b6cd704902a7fae4e9ab6106c95fc4e237e2870bb83133e594f528841864736f6c63430008000033",
  "linkReferences": {},
  "deployedLinkReferences": {}
}