{
  "_format": "hh-sol-artifact-1",
  "contractName": "WavePortal",
  "sourceName": "contracts/WavePortal.sol",
  "abi": [
    {
      "inputs": [],
      "stateMutability": "payable",
      "type": "constructor"
    },
    {
      "anonymous": false,
      "inputs": [
        {
          "indexed": true,
          "internalType": "address",
          "name": "from",
          "type": "address"
        },
        {
          "indexed": false,
          "internalType": "uint256",
          "name": "timestamp",
          "type": "uint256"
        },
        {
          "indexed": false,
          "internalType": "string",
          "name": "text",
          "type": "string"
        },
        {
          "indexed": false,
          "internalType": "string",
          "name": "author",
          "type": "string"
        }
      ],
      "name": "NewWave",
      "type": "event"
    },
    {
      "inputs": [
        {
          "internalType": "string",
          "name": "_text",
          "type": "string"
        },
        {
          "internalType": "string",
          "name": "_author",
          "type": "string"
        }
      ],
      "name": "addWaveHandler",
      "outputs": [],
      "stateMutability": "nonpayable",
      "type": "function"
    },
    {
      "inputs": [],
      "name": "getAllWaves",
      "outputs": [
        {
          "components": [
            {
              "internalType": "address",
              "name": "waver",
              "type": "address"
            },
            {
              "internalType": "string",
              "name": "text",
              "type": "string"
            },
            {
              "internalType": "string",
              "name": "author",
              "type": "string"
            },
            {
              "internalType": "uint256",
              "name": "timestamp",
              "type": "uint256"
            }
          ],
          "internalType": "struct WavePortal.Wave[]",
          "name": "",
          "type": "tuple[]"
        }
      ],
      "stateMutability": "view",
      "type": "function"
    },
    {
      "inputs": [],
      "name": "getCountWaves",
      "outputs": [
        {
          "internalType": "uint256",
          "name": "",
          "type": "uint256"
        }
      ],
      "stateMutability": "view",
      "type": "function"
    },
    {
      "inputs": [
        {
          "internalType": "address",
          "name": "",
          "type": "address"
        }
      ],
      "name": "lastWavedAt",
      "outputs": [
        {
          "internalType": "uint256",
          "name": "",
          "type": "uint256"
        }
      ],
      "stateMutability": "view",
      "type": "function"
    }
  ],
  "bytecode": "0x60806040526200004f6040518060400160405280600581526020017f48454c4c4f0000000000000000000000000000000000000000000000000000008152506200007760201b620006811760201c565b606444426200005f9190620001c4565b6200006b919062000261565b60008190555062000308565b62000117816040516024016200008e919062000184565b6040516020818303038152906040527f41304fac000000000000000000000000000000000000000000000000000000007bffffffffffffffffffffffffffffffffffffffffffffffffffffffff19166020820180517bffffffffffffffffffffffffffffffffffffffffffffffffffffffff83818316178352505050506200011a60201b60201c565b50565b60008151905060006a636f6e736f6c652e6c6f679050602083016000808483855afa5050505050565b60006200015082620001a8565b6200015c8185620001b3565b93506200016e8185602086016200022b565b6200017981620002f7565b840191505092915050565b60006020820190508181036000830152620001a0818462000143565b905092915050565b600081519050919050565b600082825260208201905092915050565b6000620001d18262000221565b9150620001de8362000221565b9250827fffffffffffffffffffffffffffffffffffffffffffffffffffffffffffffffff0382111562000216576200021562000299565b5b828201905092915050565b6000819050919050565b60005b838110156200024b5780820151818401526020810190506200022e565b838111156200025b576000848401525b50505050565b60006200026e8262000221565b91506200027b8362000221565b9250826200028e576200028d620002c8565b5b828206905092915050565b7f4e487b7100000000000000000000000000000000000000000000000000000000600052601160045260246000fd5b7f4e487b7100000000000000000000000000000000000000000000000000000000600052601260045260246000fd5b6000601f19601f8301169050919050565b6110b880620003186000396000f3fe608060405234801561001057600080fd5b506004361061004c5760003560e01c8063244a0bf8146100515780632c1c60111461006f578063a42a46631461008b578063bd43a908146100bb575b600080fd5b6100596100d9565b6040516100669190610d35565b60405180910390f35b61008960048036038101906100849190610928565b6100e3565b005b6100a560048036038101906100a091906108ff565b610486565b6040516100b29190610d35565b60405180910390f35b6100c361049e565b6040516100d09190610c61565b60405180910390f35b6000600154905090565b42610384600360003373ffffffffffffffffffffffffffffffffffffffff1673ffffffffffffffffffffffffffffffffffffffff168152602001908152602001600020546101319190610e67565b10610171576040517f08c379a000000000000000000000000000000000000000000000000000000000815260040161016890610d15565b60405180910390fd5b42600360003373ffffffffffffffffffffffffffffffffffffffff1673ffffffffffffffffffffffffffffffffffffffff16815260200190815260200160002081905550600260405180608001604052803373ffffffffffffffffffffffffffffffffffffffff16815260200184815260200183815260200142815250908060018154018082558091505060019003906000526020600020906004020160009091909190915060008201518160000160006101000a81548173ffffffffffffffffffffffffffffffffffffffff021916908373ffffffffffffffffffffffffffffffffffffffff160217905550602082015181600101908051906020019061027a9291906107df565b5060408201518160020190805190602001906102979291906107df565b5060608201518160030155505060018060008282546102b69190610e67565b92505081905550606460005442446102ce9190610e67565b6102d89190610e67565b6102e29190610f6d565b6000819055506103296040518060400160405280601681526020017f52616e646f6d20232067656e6572617465643a2025640000000000000000000081525060005461071a565b603260005411610430576000655af3107a4000905047811115610381576040517f08c379a000000000000000000000000000000000000000000000000000000000815260040161037890610cd5565b60405180910390fd5b60003373ffffffffffffffffffffffffffffffffffffffff16826040516103a790610c4c565b60006040518083038185875af1925050503d80600081146103e4576040519150601f19603f3d011682016040523d82523d6000602084013e6103e9565b606091505b505090508061042d576040517f08c379a000000000000000000000000000000000000000000000000000000000815260040161042490610cf5565b60405180910390fd5b50505b3373ffffffffffffffffffffffffffffffffffffffff167f0646f10b0148fe8db9a43af10b6956b53e1478c47afc7132c17e243449dfd33942848460405161047a93929190610d50565b60405180910390a25050565b60036020528060005260406000206000915090505481565b60606002805480602002602001604051908101604052809291908181526020016000905b8282101561067857838290600052602060002090600402016040518060800160405290816000820160009054906101000a900473ffffffffffffffffffffffffffffffffffffffff1673ffffffffffffffffffffffffffffffffffffffff1673ffffffffffffffffffffffffffffffffffffffff16815260200160018201805461054b90610f3b565b80601f016020809104026020016040519081016040528092919081815260200182805461057790610f3b565b80156105c45780601f10610599576101008083540402835291602001916105c4565b820191906000526020600020905b8154815290600101906020018083116105a757829003601f168201915b505050505081526020016002820180546105dd90610f3b565b80601f016020809104026020016040519081016040528092919081815260200182805461060990610f3b565b80156106565780601f1061062b57610100808354040283529160200191610656565b820191906000526020600020905b81548152906001019060200180831161063957829003601f168201915b50505050508152602001600382015481525050815260200190600101906104c2565b50505050905090565b610717816040516024016106959190610c83565b6040516020818303038152906040527f41304fac000000000000000000000000000000000000000000000000000000007bffffffffffffffffffffffffffffffffffffffffffffffffffffffff19166020820180517bffffffffffffffffffffffffffffffffffffffffffffffffffffffff83818316178352505050506107b6565b50565b6107b28282604051602401610730929190610ca5565b6040516020818303038152906040527f9710a9d0000000000000000000000000000000000000000000000000000000007bffffffffffffffffffffffffffffffffffffffffffffffffffffffff19166020820180517bffffffffffffffffffffffffffffffffffffffffffffffffffffffff83818316178352505050506107b6565b5050565b60008151905060006a636f6e736f6c652e6c6f679050602083016000808483855afa5050505050565b8280546107eb90610f3b565b90600052602060002090601f01602090048101928261080d5760008555610854565b82601f1061082657805160ff1916838001178555610854565b82800160010185558215610854579182015b82811115610853578251825591602001919060010190610838565b5b5090506108619190610865565b5090565b5b8082111561087e576000816000905550600101610866565b5090565b600061089561089084610dc6565b610d95565b9050828152602081018484840111156108ad57600080fd5b6108b8848285610ef9565b509392505050565b6000813590506108cf8161106b565b92915050565b600082601f8301126108e657600080fd5b81356108f6848260208601610882565b91505092915050565b60006020828403121561091157600080fd5b600061091f848285016108c0565b91505092915050565b6000806040838503121561093b57600080fd5b600083013567ffffffffffffffff81111561095557600080fd5b610961858286016108d5565b925050602083013567ffffffffffffffff81111561097e57600080fd5b61098a858286016108d5565b9150509250929050565b60006109a08383610bc4565b905092915050565b6109b181610ebd565b82525050565b60006109c282610e06565b6109cc8185610e29565b9350836020820285016109de85610df6565b8060005b85811015610a1a57848403895281516109fb8582610994565b9450610a0683610e1c565b925060208a019950506001810190506109e2565b50829750879550505050505092915050565b6000610a3782610e11565b610a418185610e45565b9350610a51818560208601610f08565b610a5a8161105a565b840191505092915050565b6000610a7082610e11565b610a7a8185610e56565b9350610a8a818560208601610f08565b610a938161105a565b840191505092915050565b6000610aab603483610e56565b91507f547279696e6720746f207769746864726177206d6f7265206d6f6e657920746860008301527f616e2074686520636f6e7472616374206861732e0000000000000000000000006020830152604082019050919050565b6000610b11602783610e56565b91507f4661696c656420746f207769746864726177206d6f6e65792066726f6d20636f60008301527f6e74726163742e000000000000000000000000000000000000000000000000006020830152604082019050919050565b6000610b77600083610e3a565b9150600082019050919050565b6000610b91600883610e56565b91507f576169742031356d0000000000000000000000000000000000000000000000006000830152602082019050919050565b6000608083016000830151610bdc60008601826109a8565b5060208301518482036020860152610bf48282610a2c565b91505060408301518482036040860152610c0e8282610a2c565b9150506060830151610c236060860182610c2e565b508091505092915050565b610c3781610eef565b82525050565b610c4681610eef565b82525050565b6000610c5782610b6a565b9150819050919050565b60006020820190508181036000830152610c7b81846109b7565b905092915050565b60006020820190508181036000830152610c9d8184610a65565b905092915050565b60006040820190508181036000830152610cbf8185610a65565b9050610cce6020830184610c3d565b9392505050565b60006020820190508181036000830152610cee81610a9e565b9050919050565b60006020820190508181036000830152610d0e81610b04565b9050919050565b60006020820190508181036000830152610d2e81610b84565b9050919050565b6000602082019050610d4a6000830184610c3d565b92915050565b6000606082019050610d656000830186610c3d565b8181036020830152610d778185610a65565b90508181036040830152610d8b8184610a65565b9050949350505050565b6000604051905081810181811067ffffffffffffffff82111715610dbc57610dbb61102b565b5b8060405250919050565b600067ffffffffffffffff821115610de157610de061102b565b5b601f19601f8301169050602081019050919050565b6000819050602082019050919050565b600081519050919050565b600081519050919050565b6000602082019050919050565b600082825260208201905092915050565b600081905092915050565b600082825260208201905092915050565b600082825260208201905092915050565b6000610e7282610eef565b9150610e7d83610eef565b9250827fffffffffffffffffffffffffffffffffffffffffffffffffffffffffffffffff03821115610eb257610eb1610f9e565b5b828201905092915050565b6000610ec882610ecf565b9050919050565b600073ffffffffffffffffffffffffffffffffffffffff82169050919050565b6000819050919050565b82818337600083830152505050565b60005b83811015610f26578082015181840152602081019050610f0b565b83811115610f35576000848401525b50505050565b60006002820490506001821680610f5357607f821691505b60208210811415610f6757610f66610ffc565b5b50919050565b6000610f7882610eef565b9150610f8383610eef565b925082610f9357610f92610fcd565b5b828206905092915050565b7f4e487b7100000000000000000000000000000000000000000000000000000000600052601160045260246000fd5b7f4e487b7100000000000000000000000000000000000000000000000000000000600052601260045260246000fd5b7f4e487b7100000000000000000000000000000000000000000000000000000000600052602260045260246000fd5b7f4e487b7100000000000000000000000000000000000000000000000000000000600052604160045260246000fd5b6000601f19601f8301169050919050565b61107481610ebd565b811461107f57600080fd5b5056fea2646970667358221220c4d1f0172057f66958d78d56ec00b57dcdc4c7387ae03c92d0c6128dfd32fcd164736f6c63430008000033",
  "linkReferences": {},
  "deployedLinkReferences": {}
}